:100000000C9461020C9489020C9489020C94780A75
:100010000C94780A0C94780A0C9489020C94890246
:100020000C9489020C9489020C9489020C94890224
:100030000C9489020C9489020C9489020C94890214
:100040000C94E6090C9489020C9489020C948902A0
:100050000C9489020C9489020C9489020C948902F4
:100060000C9489020C948902D010D51017123A1200
:100070005D12D4124B13561300000000230026001B
:10008000290000000000250028002B0004040404BF
:100090000404040402020202020203030303030332
:1000A000010204081020408001020408102001020F
:1000B00004081020B0460054757262696E6500B085
:1000C000460052696768742045786800B046004C65
:1000D0006566742045786800B046004578686175AB
:1000E000737400B0460052696768742043796C00ED
:1000F000B046004C6566742043796C00B0460043FE
:10010000796C696E64657200B0460054656D702D3F
:100110003200B0460054656D702D3100B04300547C
:10012000757262696E6500B0430052696768742039
:1001300045786800B043004C6566742045786800D7
:10014000B043004578686175737400B0430052692C
:100150006768742043796C00B043004C6566742076
:1001600043796C00B0430043796C696E646572003A
:10017000B0430054656D702D3200B0430054656D7E
:10018000702D3100B0460054757262696E6500B022
:10019000460052696768742045786800B046004C94
:1001A0006566742045786800B046004578686175DA
:1001B000737400B0460052696768742043796C001C
:1001C000B046004C6566742043796C00B04600432D
:1001D000796C696E64657200B0460054656D702D6F
:1001E0003200B0460054656D702D3100B0430054AC
:1001F000757262696E6500B0430052696768742069
:1002000045786800B043004C656674204578680006
:10021000B043004578686175737400B0430052695B
:100220006768742043796C00B043004C65667420A5
:1002300043796C00B0430043796C696E6465720069
:10024000B0430054656D702D3200B0430054656DAD
:10025000702D3100524354204448540020447561AD
:100260006C204869676854656D70002052435420C3
:100270004A65746920546F6F6C7300204475616C1B
:10028000204869676854656D700020524354204AC5
:1002900065746920546F6F6C7300527374205570CD
:1002A000446E2053617665203E005265736574206C
:1002B0006F722053617665004368616E67653A200E
:1002C00055702F446E0054757262696E65005269F4
:1002D00067687420457868004C65667420457868C6
:1002E00000457868617573740052696768742043CB
:1002F000796C004C6566742043796C0043796C69B5
:100300006E6465720054656D702D320054656D70B9
:100310002D3100532D323A20004368616E67653AF3
:100320002055702F446E0054757262696E650052DC
:100330006967687420457868004C65667420457864
:100340006800457868617573740052696768742045
:1003500043796C004C6566742043796C0043796C7A
:10036000696E6465720054656D702D320054656D60
:10037000702D3100532D313A20004368616E67655E
:100380003A20446E00B046202855532900B043203F
:100390002845552900556E6974733A2000436861F9
:1003A0006E67653A20446E0053656E736F7220630A
:1003B0006F756E743A2000B04600B04300547572F9
:1003C00062696E653A2000526967687420457868F2
:1003D0003A20004C656674204578683A20004578DC
:1003E00068617573743A20005269676874204379B4
:1003F0006C3A20004C6566742043796C3A200043C7
:10040000796C696E6465723A200054656D702D32A6
:100410003A200054656D702D313A2000B04600B08E
:10042000430054757262696E653A200052696768CC
:1004300074204578683A20004C65667420457868D9
:100440003A2000457868617573743A2000526967F4
:1004500068742043796C3A20004C656674204379B7
:100460006C3A200043796C696E6465723A200054DE
:10047000656D702D323A200054656D702D313A2033
:1004800000204475616C204869676854656D700090
:1004900020524354204A65746920546F6F6C730076
:1004A00000000000240027002A00000000080002CD
:1004B0000100000304070000000000000000F91420
:1004C000601511241FBECFEFD8E0DEBFCDBF11E015
:1004D000A0E0B1E0E4EAF0E302C005900D92AA3199
:1004E000B107D9F722E0AAE1B1E001C01D92AF3215
:1004F000B207E1F712E0C0E6D2E004C02197FE01A6
:100500000E941B18CF35D107C9F70E94150C0C9417
:1005100045180C9400000F931F93CF93C82F06E348
:1005200011E0F801608F682FC8010E946208F8018D
:10053000108E8C2FCF911F910F9108952F923F9283
:100540004F925F926F927F928F929F92AF92BF92E3
:10055000CF92DF92EF92FF920F931F93CF93DF938F
:1005600000D000D01F92CDB7DEB75C012A013B015D
:1005700020E030E0A901C301B2010E94361687FFD6
:1005800005C020E030E040E05FEB04C020E030E058
:1005900040E05FE3C301B2010E94CA156B017C0118
:1005A00020E030E0A901C301B2010E94361687FFA6
:1005B00004C0F7FAF094F7F8F094812C912C8DECAC
:1005C00089839CEC9A838CEC282E9DE3392E20E0C5
:1005D00030E040E251E469817A81C1010E949A17BA
:1005E0006D837B83182F092FA7019601902F0E94FE
:1005F0003616181654F0EFEF8E1A9E0AFD81F98315
:100600008B818A83212E302EE2CF20E030E0A901B9
:10061000C301B2010E94361687FF08C08DE2F501C2
:10062000808381E090E09C838B8302C01C821B82CC
:100630008114910459F4EB81FC81EA0DFB1D80E3E8
:100640008083EB81FC813196FC83EB8300E010E03A
:1006500008151905B9F129813A81A101C701B6012F
:100660000E943B160E94AD162B013C016B817C81E0
:10067000600F711F6A0D7B1D4AE0C2010E947E154A
:10068000B201550C880B990B0E94E51629813A811D
:10069000A1010E949A179B01AC01C701B6010E94FB
:1006A000C9156B017C0120E030E040E251E4698132
:1006B0007A81C1010E943B1669837A831C010F5F16
:1006C0001F4FC6CF0A0D1B1DEB81FC81E00FF11FF0
:1006D0001082C5010F900F900F900F900F90DF9137
:1006E000CF911F910F91FF90EF90DF90CF90BF902F
:1006F000AF909F908F907F906F905F904F903F90C2
:100700002F9008952F923F924F925F926F927F9217
:100710008F929F92AF92BF92CF92DF92EF92FF9211
:100720000F931F93CF93DF93C0900902D0900A02DA
:10073000E0900B02F0900C020E94DA092091E10196
:100740002223E9F060E08EE70E948B0261E082E9FB
:100750000E948B0261E083E20E948B0261E0809143
:10076000E1010E948B0280910601882311F08150E3
:1007700003C01092E10186E08093060170C324EF6C
:10078000C20E21E0D21EE11CF11C11E0C616D706F4
:10079000E806F90608F010E060E08EE70E948B02A0
:1007A00061E08FE90E948B02111170C08091E2011B
:1007B000A0915F01B0916001E82FF0E0EE0FFF1F04
:1007C000EF53FE4F20813181232B49F48F5F282F77
:1007D00030E02A173B0784F31092E20102C08093B5
:1007E000E2016091E201F6E0E0E026E030E0E12C99
:1007F00040E050E070E0CA01860F971F8A179B0700
:10080000A4F5009709F1E394880F991FFC01EF55B7
:10081000FE4F80818F718830A1F0813019F4C901B9
:10082000039615C0811103C0C901029610C085301E
:1008300019F4C90104960BC0893019F0C901019659
:1008400006C0C901059603C0C9012F2F3E2F4F5F77
:100850005F4F4031510551F08B31910514F0EA940E
:1008600004C0F22FE32F9C01C6CFC901C82FC0647A
:1008700081E080934E016C2F86E391E00E94620834
:1008800060E08C2F0E946C0AC82F1DC0E0910F02FF
:10089000F0E0EE0FFF1FEE55FE4F8081C82FCF71A5
:1008A000829586958770C80FC85F81E080934E015E
:1008B0006C2F86E391E00E94620860E08C2F0E941A
:1008C0006C0AC82FE12CD1E0D0934E0161E186E3A0
:1008D00091E00E9462086C2F81E10E946C0AC82F8F
:1008E000D0934E0164EA86E391E00E9462086C2F87
:1008F00084EA0E946C0AC82FD0934E0162E086E31E
:1009000091E00E9462086C2F82E00E946C0AC82F5E
:10091000D0934E0167E086E391E00E9462086C2F5D
:1009200087E00E946C0AC82FD0934E0160E086E3F6
:1009300091E00E94620810924E016C2F80E00E94AC
:100940006C0AF82E1111EAC1C091E2016E2C6C0EF6
:1009500020915F0130916001C61551F077247394A6
:100960007C0E7092E2010C2F10E00217130754F076
:100970008091E20190E0821793070CF46CC2109210
:10098000E20169C2CC2309F4C7C1E0910D02F091E4
:100990000E020995C295C07F680131E2C30ED11CD9
:1009A000C601880F991FFC01E15AFE4F5F0180814B
:1009B0008F7190E08530910509F4BEC0F4F5009781
:1009C00009F495C0019709F0A7C1000F111FF801A4
:1009D000EF53FE4F0190F081E02D00811181C16045
:1009E000D0934E016C2F86E391E00E9462086F2D38
:1009F0008C2F0E946C0AC82F1F79F5012081229547
:100A00002695277030E0322F22273295330F307E23
:100A1000022B132BD0934E01602F86E391E00E94AE
:100A200062086C2F802F0E946C0A082F912F9F79EB
:100A3000F501C081C07EC92B74C08830910521F0BA
:100A4000099709F4C2C068C1C860D0934E016C2FE9
:100A500086E391E00E9462086F2D8C2F0E946C0A41
:100A6000C82F000F111FF801EF53FE4F0190F081C6
:100A7000E02D80819181A281B3816C017D01FFE92C
:100A8000FF22D0934E016C2D86E391E00E94620814
:100A90006C2F8C2D0E946C0AC82F2D2C3E2C4F2CB5
:100AA000552447FC5A94D0934E01622D86E391E081
:100AB0000E9462086C2F822D0E946C0AC82F1701B9
:100AC000552437FC5094452CD0934E01622D86E37B
:100AD00091E00E9462086C2F822D0E946C0A182FF0
:100AE0009F2D9F79F501C081C07EC92B62C0000F88
:100AF000111FF801EF53FE4F0190F081E02D10819E
:100B0000D0934E016C2F86E391E00E9462086F2D16
:100B10008C2F0E946C0A082F1F79F501C081C07EBE
:100B2000C12BD0934E016C2F86E391E00E946208A6
:100B300010924E01602F47C0C560D0934E016C2FBC
:100B400086E391E00E94620810924E016F2D8C2F77
:100B50000E946C0AF82E000F111FF801EF53FE4F90
:100B60000190F081E02D118102819081F5012081B9
:100B7000229526952770213011F0C0E001C0C0E415
:100B8000C92BD0934E01602F86E391E00E9462084A
:100B90006F2D802F0E946C0A082FD0934E01612F79
:100BA00086E391E00E946208602F812F0E946C0A08
:100BB000182FD0934E016C2F86E391E00E946208BB
:100BC00010924E01612F8C2FA4C0C960D0934E01AA
:100BD0006C2F86E391E00E9462086F2D8C2F0E949B
:100BE0006C0AC82F000F111FF801EF53FE4F019040
:100BF000F081E02D80809180A280B38020E030E001
:100C0000A901C501B4010E94951718161CF4C5016D
:100C1000B40103C0C501B40190580E94B4168B0101
:100C200080E090E00E94E3169B01AC01C501B40195
:100C30000E94C9152AE939E949E15FE30E949A1740
:100C400020E030E543EC57E40E949A171B012C0189
:100C500020E030E0A9010E94951718161CF4C2018B
:100C6000B10103C0C201B10190580E94B416562EC2
:100C7000F72E812F8170F601EE0FFF1FE15AFE4F14
:100C80009081929596959770913011F090E001C007
:100C900090E2192F182B20E030E0A901C501B40122
:100CA0000E943616881F8827881F8295880F880F14
:100CB000807C182BD0934E01652D86E391E00E9435
:100CC00062086C2F852D0E946C0AC82FD0934E01AC
:100CD0006F2D86E391E00E9462086C2F8F2D0E9499
:100CE0006C0AC82FD0934E01602F86E391E00E94DA
:100CF00062086C2F802F0E946C0AC82FD0934E017F
:100D0000612F86E391E00E94620810924E016C2FE1
:100D1000812F0E946C0AF82EC72D1ACEC0910F02A7
:100D2000D0934E016C2F86E391E00E9462086F2DF4
:100D30008C2F0E946C0AB82E0C2F10E06801CC0C8E
:100D4000DD1C96012E553E4F4901F9012081922F5D
:100D50009F71F8E09F9F70011124229526952770BE
:100D6000E22AD0934E016E2D86E391E00E94620844
:100D700010924E016B2D8E2D0E946C0AF82EF601FA
:100D8000EF59FE4FD081AD2EB180772473942A2D78
:100D90002D1B30E0F40180818F7190E02817390716
:100DA000A4F4F501E49070924E016E2D86E391E07B
:100DB0000E94620810924E016F2D8E2D0E946C0AC7
:100DC000F82EFFEFAF1ABF0AE2CF000F111FD801B4
:100DD000AF57BE4FDC910D2F11961C9196012E55E9
:100DE0003E4F6901BB24B394202F2D1B30E0F60148
:100DF000808182958695877090E0281739079CF44A
:100E0000F801E490B0924E016E2D86E391E00E94CD
:100E1000620810924E016F2D8E2D0E946C0AF82EE2
:100E20000F5F1F4FE1CFCF5FC0930F028C2F90E079
:100E300020915F01309160018217930714F01092A6
:100E40000F020E94DA096093090270930A028093EC
:100E50000B0290930C0261E08F2D0E948B02E091B7
:100E60000D02F0910E02099560E08EEF0E948B0258
:100E7000C7EED1E01C2F105E61E089910E948B02C9
:100E80001C13FACF60E08FEF0E948B0281E0DF91AC
:100E9000CF911F910F91FF90EF90DF90CF90BF9077
:100EA000AF909F908F907F906F905F904F903F900A
:100EB0002F900895CF92DF92FF920F931F93CF93BD
:100EC000DF9320915F013091600120313105CCF535
:100ED0006B0189010F5F1F4FF801EE0FFF1FE15AF1
:100EE000FE4F91838083F901EE0FFF1FEF57FE4FF6
:100EF00071836083F901EE0FFF1FEF53FE4F1182E4
:100F00001082220F331FE901CF55DE4F18820E9455
:100F10007515982F9F718981807EF82EF92AC60158
:100F20000E9475158295880F807E9F2D9F71F92EE6
:100F3000F82AF9821093600100935F018FEF800F10
:100F400001C08FEFDF91CF911F910F91FF90DF9044
:100F5000CF900895CF92DF92EF92FF920F931F935D
:100F6000CF93DF936C017A018B01C0E0D0E0CE1506
:100F7000DF0589F0D8016D918D01D601ED91FC91CD
:100F80000190F081E02DC6010995892B11F47E01B5
:100F900002C02196ECCFC701DF91CF911F910F9135
:100FA000FF90EF90DF90CF900895833081F028F488
:100FB000813099F08230A1F008958730A9F088300F
:100FC000B9F08430D1F4809180008F7D03C080918E
:100FD00080008F7780938000089584B58F7702C05A
:100FE00084B58F7D84BD08958091B0008F7703C054
:100FF0008091B0008F7D8093B00008950895DC014A
:101000005196ED91FC915297908150968C918095DC
:1010100089238083089520912D0230912E02281774
:10102000390771F490912B0280912C02981741F0AE
:10103000E0912B02F0E0EE5EFD4F808190E008959C
:101040008FEF9FEF0895089520912D0230912E0289
:101050002817390769F480912C0220912B0290E027
:101060004096821B910960E170E00E940718089584
:1010700080E090E0089520912D0230912E022817F3
:101080003907B9F490912B0280912C02981789F0BE
:10109000E0912B02F0E0EE5EFD4F808120912B026B
:1010A00030E02F5F3F4F2F70332720932B0290E0CB
:1010B00008958FEF9FEF0895089580E090E00895E0
:1010C0000E943518CF92DF92EF92FF920F931F93F9
:1010D000CF93DF93EC0189A19AA1009729F421E035
:1010E00030E03B832A8371C00FB7F8948F8D98A1AD
:1010F000892B91F028E030E090E081E0482F4623F2
:1011000009F09F5F880F21503109C1F7888D811147
:101110009F5F192F109501C010E0F62ECE010E949E
:10112000FF0789A19AA10197F1F788E0C82ED12C79
:10113000EE24E3948E2D8F2139F0E989FA8990818C
:101140008889892B808303C0CE010E94FF0789A173
:101150009AA10197F1F7EE0C81E0C81AD10851F776
:101160008E89882389F0888D882339F0E989FA8966
:1011700090818889892B808303C0CE010E94FF075C
:1011800089A19AA10197F1F78F8D98A1892B81F000
:1011900010FF07C0E989FA8990818889892B8083AB
:1011A00003C0CE010E94FF078F8D98A10197F1F730
:1011B000E989FA8990818889892B80830FBF8D8D79
:1011C0009E8D0197F1F781E090E0DF91CF911F9123
:1011D0000F91FF90EF90DF90CF9008951F93CF93E2
:1011E000DF93282F30E0F901E655FB4F8491F90198
:1011F000E056FF4FD491F901E457FF4FC491CC233F
:10120000C9F0162F81110E94D507EC2FF0E0EE0FE8
:10121000FF1FEE57FF4FA591B4918FB7F8941111AE
:1012200005C09C91ED2FE095E92302C0EC91ED2BD8
:10123000EC938FBFDF91CF911F910895BF92CF9212
:10124000DF92EF92FF920F931F93CF93DF938C0166
:10125000D12CC7E0D0E0EE24E394F12C60E0F8015B
:1012600080810E94EE088FEC97E00197F1F700C0B3
:101270000000F801218130E0F901E655FB4F84912F
:10128000F901E056FF4FB490F901E457FF4FC490C5
:10129000CC2071F081110E94D507EC2DF0E0EE0F0B
:1012A000FF1FE858FF4FA591B491EC91EB21C9F4D1
:1012B00061E0F80180810E94EE088FEC97E00197D1
:1012C000F1F700C00000219708F0C8CF8D2DDF9105
:1012D000CF911F910F91FF90EF90DF90CF90BF9033
:1012E0000895C7010C2E01C0880F0A94EAF7D82A86
:1012F000DFCFCF93DF9390E0FC01E056FF4F2491C6
:10130000FC01E457FF4F8491882361F190E0880F3E
:10131000991FFC01E056FB4FC591D491FC01EE579B
:10132000FF4FA591B491611109C09FB7F8948881CE
:10133000209582238883EC912E230BC0623061F4C8
:101340009FB7F8943881822F809583238883EC910E
:101350002E2B2C939FBF06C08FB7F894E8812E2BBD
:1013600028838FBFDF91CF9108953FB7F894809184
:10137000270290912802A0912902B0912A0226B555
:10138000A89B05C02F3F19F00196A11DB11D3FBFBD
:10139000BA2FA92F982F8827820F911DA11DB11D4B
:1013A000BC01CD0143E0660F771F881F991F4A9546
:1013B000D1F708952FB7F894609123027091240219
:1013C00080912502909126022FBF08951F920F92BF
:1013D0000FB60F9211242F933F938F939F93AF9348
:1013E000BF938091230290912402A0912502B09195
:1013F00026023091220226E0230F2D3720F4029698
:10140000A11DB11D05C029E8230F0396A11DB11D23
:10141000209322028093230290932402A09325021A
:10142000B09326028091270290912802A091290270
:10143000B0912A020196A11DB11D809327029093BD
:101440002802A0932902B0932A02BF91AF919F91E5
:101450008F913F912F910F900FBE0F901F90189575
:101460000F931F93CF93DF938C0160E0FC01828187
:101470000E94EE088FEC97E00197F1F700C00000A2
:10148000C8010E941E09C82FD0E0DC2FCC27C8015C
:101490000E941E09C82B61E0F80182810E94EE08BB
:1014A000C2FD11C0BE0183E0769567958A95E1F78C
:1014B00080E090E00E94E31620E030E040E85EE348
:1014C0000E949A1704C060E070E080EC9FE7DF9113
:1014D000CF911F910F910895862798E027E087FF0D
:1014E00003C0880F822701C0880F9150C1F708956B
:1014F0001F920F920FB60F9211242F933F934F9389
:101500005F936F937F938F939F93AF93BF93CF938B
:10151000DF93EF93FF93E0912D02F0912E0230972D
:1015200009F467C0C685D78588812585822309F09F
:1015300060C0818D928D0197F1F7438D548D68E0E5
:1015400070E030E081E0DA011197F1F798819223A1
:1015500011F0382B03C0982F90953923880F6150D4
:10156000710989F780912C0290E001968F7099277C
:1015700060912B02681749F0A0912C02B0E0AE5E9A
:10158000BD4F3C9380932C0203C087898160878B79
:1015900086898823F1F0CA010197F1F78881282311
:1015A00081E090E0A0E0B0E004C0880F991FAA1F7E
:1015B000BB1F2A95D2F7409110025091110260E0B2
:1015C00070E0842B952BA62BB72B90931102809360
:1015D0001002878D90A1009711F00197F1F7858D8A
:1015E000968D0197F1F7A389B4899C918589892B00
:1015F0008C93FF91EF91DF91CF91BF91AF919F912C
:101600008F917F916F915F914F913F912F910F90AB
:101610000FBE0F901F901895E0912D02F0912E02B1
:10162000E817F90769F4A389B4899C9185898095A5
:1016300089238C9310922E0210922D0281E008953E
:1016400080E008950C94BB15CF93DF9386E391E07F
:101650000E940C0BC6E3D1E061E08C850E94790901
:1016600061E08C85DF91CF910C94EE08809153015D
:1016700090915401892B31F180912D0290912E028D
:1016800021E086339207F1F0009711F00E940C0BD5
:1016900080914D018E7F80934D0110922C0210920B
:1016A0002B0286E391E090932E0280932D02E0912D
:1016B0004901F0914A01908180914B01892B8083EF
:1016C00081E0089580E008950F931F93CF93DF93F7
:1016D0008C01EB010E947515A7EEB1E090E020E2CD
:1016E000981740F4A8014F5F5F4FF80104910C93E5
:1016F0008A0101C02C939F5F1196903189F7CE012A
:101700000E947515A7EFB1E090E020E2981740F431
:10171000AE014F5F5F4FFE01C491CC93EA0101C05F
:101720002C939F5F1196903189F7DF91CF911F9194
:101730000F910895CF93DF93FC0101900020E9F70A
:101740003197E81B20E030E0F0E2A90148575F4FF5
:101750002E1748F4EA01C15ADE4FDC01A20FB31F75
:10176000AC91A88304C0DA01A15ABE4FFC932F5F4D
:101770003F4F2031310549F7FB0101900020E9F787
:101780003197E61B80E090E040E29C0128563F4FF5
:101790008E1748F4E901C15ADE4FDB01A80FB91FCB
:1017A0005C91588304C0D901A15ABE4F4C93019655
:1017B0008031910551F7DF91CF9108958F929F92DB
:1017C000AF92BF92CF92DF92EF92FF920E94B50943
:1017D0004B015C0188ECC82ED12CE12CF12C0E942D
:1017E000B509DC01CB0188199909AA09BB09883E12
:1017F0009340A105B10558F021E0C21AD108E108D3
:10180000F10888EE880E83E0981EA11CB11CC1145B
:10181000D104E104F10419F7FF90EF90DF90CF902D
:10182000BF90AF909F908F900895CF93DF93CDB7E7
:10183000DEB7E4970FB6F894DEBF0FBECDBF789445
:1018400084B5826084BD84B5816084BD85B58260C5
:1018500085BD85B5816085BD80916E008160809376
:101860006E001092810080918100826080938100DF
:1018700080918100816080938100809180008160EF
:10188000809380008091B10084608093B10080914A
:10189000B00081608093B00080917A008460809372
:1018A0007A0080917A00826080937A0080917A0039
:1018B0008E7F80937A0080917A00806880937A008E
:1018C0001092C10061E08DE00E94790961E08DE035
:1018D0000E94EE0861E083E00E94790960E083E005
:1018E0000E94EE0880911E0190911F0190930101CA
:1018F000809300016CE572E08BE692E00E94640B3D
:1019000084E592E0909362018093610110928201DC
:10191000109281011092C2011092C1011092A10196
:1019200087E08093A20181E090E090936001809332
:101930005F0161E083E00E94EE0861E083E00E94C5
:10194000790963EAE62E60E0F62EF7018491809330
:1019500046010FE810E0F801849190E0880F991F8C
:101960008E579F4FFC01259134913093480120936D
:10197000470160E083E00E94790961E083E00E9412
:10198000EE0883E080934201F701E490E092430186
:10199000F8010491E02FF0E0EE0FFF1FE858FF4F31
:1019A00085919491909345018093440181E08093C7
:1019B0004C0187EC90E0909358018093570122E509
:1019C00030E03093500120934F0125EC30E030930C
:1019D0005201209351014FE152E050935401409342
:1019E00053013093560120935501209168002460E3
:1019F000209368002DE630E030934A01209349019E
:101A000028E020934B010197F1F70E94360B0E94CA
:101A1000240B0E94DA0960932E0170932F018093AA
:101A200030019093310160932601709327018093D8
:101A300028019093290180E090E00E94B315282F9F
:101A400030E03093250120932401823020F0109261
:101A500025011092240181E090E00E94B315282F07
:101A600030E030931B0120931A01893020F010924E
:101A70001B0110921A0182E090E00E94B315282FFA
:101A800030E03093030120930201893030F081E08F
:101A900090E0909303018093020183E090E00E9424
:101AA000B31590E09093050180930401019702978C
:101AB00030F081E090E09093050180930401E09084
:101AC0002401F0902501E114F10409F08EC0009189
:101AD0001A0110911B010115110529F46AE472E045
:101AE0008DE492E007C001301105D9F460E472E0A2
:101AF00083E492E00E945A07803108F055C090E0DC
:101B0000FC01EE0FFF1FEF53FE4F22E231E0318365
:101B10002083880F991FFC01EF55FE4F81E08083E1
:101B200043C002301105D9F464E372E087E392E028
:101B30000E945A07803108F03FC090E0FC01EE0F90
:101B4000FF1FEF53FE4F22E231E031832083880FE5
:101B5000991FFC01EF55FE4F81E080832DC00330BB
:101B60001105D1F468E272E08BE292E00E945A071C
:101B7000803150F590E0FC01EE0FFF1FEF53FE4F58
:101B800022E231E031832083880F991FFC01EF5559
:101B9000FE4F81E0808318C00430110529F46BE109
:101BA00072E08EE192E0B2C00530110529F460E1E7
:101BB00072E083E192E0AAC00630110529F464E0E6
:101BC00072E087E092E0A2C00730110529F467EFC8
:101BD00071E08AEF91E09AC00830110509F0ABC0BE
:101BE0006CEE71E08FEE91E091C0F1E0EF16F10440
:101BF00009F0A1C000911A0110911B0101151105F6
:101C000029F462EE71E085EE91E007C00130110524
:101C1000D9F468ED71E08BED91E00E945A078031B4
:101C200008F055C090E0FC01EE0FFF1FEF53FE4F90
:101C300022E231E031832083880F991FFC01EF55A8
:101C4000FE4F81E0808343C002301105D9F46CEC73
:101C500071E08FEC91E00E945A07803108F03FC09C
:101C600090E0FC01EE0FFF1FEF53FE4F22E231E048
:101C700031832083880F991FFC01EF55FE4F81E0CF
:101C800080832DC003301105D1F460EC71E083EC4A
:101C900091E00E945A07803150F590E0FC01EE0F70
:101CA000FF1FEF53FE4F22E231E031832083880F84
:101CB000991FFC01EF55FE4F81E0808318C004306E
:101CC000110529F463EB71E086EB91E01FC005304C
:101CD000110529F468EA71E08BEA91E017C006303B
:101CE000110529F46CE971E08FE991E00FC007302C
:101CF000110529F46FE871E082E991E007C008302E
:101D00001105C9F464E871E087E891E00E945A0780
:101D1000803188F490E0FC01EE0FFF1FEF53FE4F7F
:101D200022E231E031832083880F991FFC01EF55B7
:101D3000FE4F81E08083809104019091050102971C
:101D400009F037C1E114F10409F08EC000910201DD
:101D5000109103010115110529F46AE771E08DE77F
:101D600091E007C001301105D9F460E771E083E725
:101D700091E00E945A07803108F055C090E0FC01C4
:101D8000EE0FFF1FEF53FE4F20E231E0318320833F
:101D9000880F991FFC01EF55FE4F81E0808343C0FF
:101DA00002301105D9F464E671E087E691E00E9403
:101DB0005A07803108F03FC090E0FC01EE0FFF1F92
:101DC000EF53FE4F20E231E031832083880F991FCB
:101DD000FC01EF55FE4F81E080832DC003301105DB
:101DE000D1F468E571E08BE591E00E945A078031FB
:101DF00050F590E0FC01EE0FFF1FEF53FE4F20E285
:101E000031E031832083880F991FFC01EF55FE4F8D
:101E100081E0808318C00430110529F46BE471E07F
:101E20008EE491E0B1C00530110529F460E471E061
:101E300083E491E0A9C00630110529F464E371E060
:101E400087E391E0A1C00730110529F467E271E052
:101E50008AE291E099C00830110509F0AAC06CE14E
:101E600071E08FE191E090C0EA94EF2809F0A1C001
:101E700000910201109103010115110529F462E19D
:101E800071E085E191E007C001301105D9F468E007
:101E900071E08BE091E00E945A07803108F055C054
:101EA00090E0FC01EE0FFF1FEF53FE4F20E231E008
:101EB00031832083880F991FFC01EF55FE4F81E08D
:101EC000808343C002301105D9F46CEF70E08FEFCE
:101ED00090E00E945A07803108F03FC090E0FC017A
:101EE000EE0FFF1FEF53FE4F20E231E031832083DE
:101EF000880F991FFC01EF55FE4F81E080832DC0B4
:101F000003301105D1F460EF70E083EF90E00E94A0
:101F10005A07803150F590E0FC01EE0FFF1FEF53A0
:101F2000FE4F20E231E031832083880F991FFC01AE
:101F3000EF55FE4F81E0808318C00430110529F46D
:101F400063EE70E086EE90E01FC00530110529F4C5
:101F500068ED70E08BED90E017C00630110529F4B4
:101F60006CEC70E08FEC90E00FC00730110529F4A5
:101F70006FEB70E082EC90E007C008301105C9F407
:101F800064EB70E087EB90E00E945A07803188F4A0
:101F900090E0FC01EE0FFF1FEF53FE4F20E231E017
:101FA00031832083880F991FFC01EF55FE4F81E09C
:101FB00080830E94820360E08DE00E94EE0898E03A
:101FC000C92ED12C412C512C3201439435E0232EC3
:101FD000312CEE24E394F12C0E94DA096093320153
:101FE00070933301809334019093350100912E0159
:101FF00010912F01209130013091310108511C4F77
:102000002F4F3F4F061717072807390744F4409210
:102010002A0150922B0160922C0170922D010091A7
:102020002A0110912B0120912C0130912D010130BA
:1020300011052105310509F08DC00091260110918F
:102040002701209128013091290106171707280739
:1020500039070CF087C08091240190912501892BCC
:1020600051F48CE591E00E94300A0E94AD16709305
:102070002301609322018091240190912501019711
:10208000E1F48CE591E00E94300A20E030E040E18C
:1020900051E40E949A1720E030E040EA50E40E94A8
:1020A0003B1620E030E040E052E40E94CA150E9456
:1020B000AD167093230160932201809104019091E9
:1020C0000501029791F58091240190912501892BBA
:1020D00051F489E591E00E94300A0E94AD16709398
:1020E00021016093200180912401909125010197A5
:1020F000E1F489E591E00E94300A20E030E040E11F
:1021000051E40E949A1720E030E040EA50E40E9437
:102110003B1620E030E040E052E40E94CA150E94E5
:10212000AD1670932101609320018091320190914E
:102130003301A0913401B091350186509F4FAF4FCC
:10214000BF4F8093260190932701A0932801B0935D
:10215000290108C01092230110922201109221013E
:1021600010922001E0911E01F0911F01E730F1056E
:1021700021F010921D0110921C018091000190919C
:1021800001018E179F0721F0F0930101E0930001F8
:10219000E830F10508F090C2EC5CFF4F0C941B187E
:1021A00061E874E080E994E085C219A2198A8091FF
:1021B0001A0190911B01892B31F468E774E0CE017C
:1021C00081960E946A1580911A0190911B010197D6
:1021D00031F46FE674E0CE0181960E946A15809119
:1021E0001A0190911B01029731F464E674E0CE016C
:1021F00081960E946A1580911A0190911B010397A4
:1022000031F469E574E0CE0181960E946A158091EF
:102210001A0190911B01049731F46DE474E0CE0132
:1022200081960E946A1580911A0190911B01059771
:1022300031F463E474E0CE0181960E946A158091C6
:102240001A0190911B01069731F468E374E0CE0106
:1022500081960E946A1580911A0190911B0107973F
:1022600031F46CE274E0CE0181960E946A1580918F
:102270001A0190911B01089731F462E274E0CE01DB
:1022800081960E946A151982609122017091230142
:10229000072E000C880B990B0E94E516AB01BC01C0
:1022A000CE0101960E949E02BE016F5F7F4FCE015C
:1022B00081960E943A188091240190912501892BE2
:1022C00031F46FE174E0CE0181960E946A1580912D
:1022D000240190912501019731F46CE174E0CE0165
:1022E00081960E946A158091020190910301892BC9
:1022F00031F463E174E0CE0141960E946A15809149
:10230000020190910301019731F46AE074E0CE017B
:1023100041960E946A1580910201909103010297F3
:1023200031F46FEF73E0CE0141960E946A158091FF
:10233000020190910301039731F464EF73E0CE0141
:1023400041960E946A1580910201909103010497C1
:1023500031F468EE73E0CE0141960E946A158091D7
:10236000020190910301059731F46EED73E0CE0107
:1023700041960E946A15809102019091030106978F
:1023800031F463ED73E0CE0141960E946A158091AD
:10239000020190910301079731F467EC73E0CE01DD
:1023A00041960E946A15809102019091030108975D
:1023B00031F46DEB73E0CE0141960E946A151982EB
:1023C0006091200170912101072E000C880B990B60
:1023D0000E94E516AB01BC01CE0101960E949E024F
:1023E000BE016F5F7F4FCE0141960E943A188091E7
:1023F000240190912501892B31F46AEB73E0CE0121
:1024000041960E946A1580912401909125010197BF
:1024100031F467EB73E0CE0141960E946A15BE016C
:102420006F5E7F4FCE0181960E949A0B45C119A223
:10243000198A68EA73E0CE0181960E946A151982B2
:102440006091040170910501072E000C880B990B17
:102450000E94E516AB01BC01CE0101960E949E02CE
:10246000BE016F5F7F4FCE0181960E943A186DE9E1
:1024700073E0D1CF19A2198A65E973E0CE01819684
:102480000E946A158091240190912501892B31F4D5
:102490006DE873E0CE0181960E946A158091240157
:1024A00090912501019731F465E873E0CE018196A2
:1024B0000E946A156AE773E0AECF19A2198A64E731
:1024C00073E0CE0181960E946A1580911A01909165
:1024D0001B01892B31F46DE673E0CE0181960E94D9
:1024E0006A1580911A0190911B01019731F466E6FB
:1024F00073E0CE0181960E946A1580911A01909135
:102500001B01029731F46DE573E0CE0181960E94C4
:102510006A1580911A0190911B01039731F464E5CB
:1025200073E0CE0181960E946A1580911A01909104
:102530001B01049731F46AE473E0CE0181960E9496
:102540006A1580911A0190911B01059731F462E49C
:1025500073E0CE0181960E946A1580911A019091D4
:102560001B01069731F469E373E0CE0181960E9466
:102570006A1580911A0190911B01079731F46FE25F
:1025800073E0CE0181960E946A1580911A019091A4
:102590001B01089731F467E273E0CE0181960E9437
:1025A0006A1569E173E037CF19A2198A63E173E014
:1025B000CE0181960E946A158091020190910301DB
:1025C000892B31F46CE073E0CE0181960E946A158C
:1025D0008091020190910301019731F465E073E06D
:1025E000CE0181960E946A158091020190910301AB
:1025F000029731F46CEF72E0CE0181960E946A1569
:102600008091020190910301039731F463EF72E02E
:10261000CE0181960E946A1580910201909103017A
:10262000049731F469EE72E0CE0181960E946A153A
:102630008091020190910301059731F461EE72E0FF
:10264000CE0181960E946A1580910201909103014A
:10265000069731F468ED72E0CE0181960E946A150A
:102660008091020190910301079731F46EEC72E0C2
:10267000CE0181960E946A1580910201909103011A
:10268000089731F466EC72E0CE0181960E946A15DB
:1026900068EB72E0C0CE19A2198A6AEA72E0CE0134
:1026A00081960E946A156AE972E0B5CE6BE772E026
:1026B0008AE892E00E94640B86E391E00E940C0B92
:1026C0000E94240B0E94820360E0809142010E94DC
:1026D000790961E0809142010E94EE080E94360B68
:1026E0000E94360B0E94DA094B015C0134E6830E2E
:1026F000911CA11CB11C00E010E00E94DA096815D1
:1027000079058A059B05B8F586E391E00E942408C7
:102710001816190694F786E391E00E94240818160B
:10272000190614F000E022C086E391E00E943B0805
:10273000082F8091080280133FC12091E30130915E
:10274000E4014091E5015091E60129AB3AAB4BAB76
:102750005CAB0E94DA0929A93AA94BA95CA9261702
:1027600037074807590708F427C1DCCF10E00115E7
:10277000110519F239C1003F110509F415C1011500
:10278000110509F411C1003B110509F467C044F4B7
:1027900000371105E1F00039110509F4D3C004C177
:1027A000003D110509F1003E110509F0FDC08091C1
:1027B0001E0190911F018730910509F4F5C0863004
:1027C000910519F460912401D4C0019608C080914C
:1027D0001E0190911F01009709F4E6C001979093A4
:1027E0001F0180931E01E0C020911E0130911F0146
:1027F00024303105A9F480911A0190911B01883091
:10280000910534F4019690931B0180931A0108C03E
:1028100010921B0110921A0130931F0120931E0188
:1028200020911E0130911F012530310509F0BCC0F7
:1028300080910201909103018830910534F4019652
:102840009093030180930201AFC010920301109294
:10285000020130931F0120931E01A6C080911E012A
:1028600090911F010297B9F48091040190910501A4
:102870000196833091052CF4909305018093040117
:1028800004C0F0920501E092040122E030E03093B0
:102890001F0120931E0180911E0190911F0103973B
:1028A000B9F480912401909125010196823091051F
:1028B0002CF4909325018093240104C010922501EB
:1028C0001092240143E050E050931F0140931E01F9
:1028D00080911E0190911F010497B9F480911A0113
:1028E00090911B011816190634F4019790931B015F
:1028F00080931A0104C0D0921B01C0921A0184E097
:1029000090E090931F0180931E0180911E01909191
:102910001F01059709F048C08091020190910301C1
:102920001816190634F4019790930301809302015D
:1029300004C0D0920301C092020130921F01209284
:102940001E0132C080911E0190911F01069761F512
:10295000109225011092240110921B0110921A016D
:10296000F0920301E0920201F0920501E09204016D
:1029700060E080E090E00E94220B60911A0181E00B
:1029800090E00E94220B6091020182E090E00E94A0
:10299000220B6091040183E090E00E94220B0E94D0
:1029A000DE0BE0E0F0E0099520E030E0232B09F4B5
:1029B00013CB0E9400000DCB0E94DA09DC01CB0191
:1029C00080579E4FAF4FBF4F8093E3019093E40138
:1029D000A093E501B093E60100930802003F09F0DF
:1029E000C5CE00EF10E089CE003F110509F0CBCE37
:1029F000DBCF0F931F93CF93DF93E6E3F1E01382D6
:102A0000128288EE93E0A0E0B0E084839583A683F1
:102A1000B7838BE091E091838083ADE4B1E08C914A
:102A20008E7F8C93128E118E148E138E168E158EB1
:102A300012A211A21092E3011092E4011092E5019A
:102A40001092E6011092E1011092600110925F0174
:102A50001092E2018EEF97E090930E0280930D02A8
:102A6000CCE5D1E00AE0088389E08A8318E0198385
:102A700061E00E94790961E088810E94790960E043
:102A800089810E94790961E08A810E94EE08C9E586
:102A9000D1E008838BE08A83198361E00E94790981
:102AA00061E088810E94790960E089810E9479094A
:102AB00061E08A81DF91CF911F910F910C94EE0814
:102AC0008BE091E0909337018093360186E391E0AB
:102AD0000C940C0BFB01DC010D900020E9F7119721
:102AE00005900D920020E1F70895FC01059000206B
:102AF000E9F7809590958E0F9F1F0895BB274A3068
:102B000031F4992322F4BDE2909581959F4F0C9466
:102B10008A15BB27FB015527AA27880F991FAA1FD3
:102B2000A41710F0A41B83955051B9F7A05DAA33E8
:102B300008F0A95DA193009779F7B111B1931192B3
:102B4000CB010C94A315DC01FC01672F7191772355
:102B5000E1F7329704C07C916D9370836291AE1758
:102B6000BF07C8F30895F999FECF92BD81BDF89AC9
:102B7000992780B50895262FF999FECF1FBA92BDE7
:102B800081BD20BD0FB6F894FA9AF99A0FBE01964E
:102B900008955058BB27AA270E94E1150C945B1793
:102BA0000E944D1738F00E94541720F039F49F3FCF
:102BB00019F426F40C944A170EF4E095E7FB0C94F4
:102BC0004417E92F0E946C1758F3BA17620773076E
:102BD0008407950720F079F4A6F50C948E170EF46F
:102BE000E0950B2EBA2FA02D0B01B90190010C011D
:102BF000CA01A0011124FF27591B99F0593F50F435
:102C0000503E68F11A16F040A22F232F342F44278C
:102C1000585FF3CF469537952795A795F040539584
:102C2000C9F77EF41F16BA0B620B730B840BBAF054
:102C30009150A1F0FF0FBB1F661F771F881FC2F7BF
:102C40000EC0BA0F621F731F841F48F487957795D3
:102C50006795B795F7959E3F08F0B0CF9395880F8D
:102C600008F09927EE0F9795879508950E942017F1
:102C700008F481E008950E944F160C945B170E949F
:102C8000541758F00E944D1740F029F45F3F29F087
:102C90000C94441751110C948F170C944A170E94EE
:102CA0006C1768F39923B1F3552391F3951B550BDA
:102CB000BB27AA2762177307840738F09F5F5F4F0F
:102CC000220F331F441FAA1FA9F335D00E2E3AF04E
:102CD000E0E832D091505040E695001CCAF72BD066
:102CE000FE2F29D0660F771F881FBB1F26173707B7
:102CF0004807AB07B0E809F0BB0B802DBF01FF27E9
:102D000093585F4F3AF09E3F510578F00C9444176A
:102D10000C948F175F3FE4F3983ED4F38695779534
:102D20006795B795F7959F5FC9F7880F911D9695A1
:102D3000879597F90895E1E0660F771F881FBB1FFD
:102D4000621773078407BA0720F0621B730B840BAA
:102D5000BA0BEE1F88F7E09508950E94B4166894A8
:102D6000B1110C948F1708950E94741788F09F5723
:102D700098F0B92F9927B751B0F0E1F0660F771F9F
:102D8000881F991F1AF0BA95C9F714C0B13091F095
:102D90000E948E17B1E008950C948E17672F782F3C
:102DA0008827B85F39F0B93FCCF38695779567955A
:102DB000B395D9F73EF490958095709561957F4FC6
:102DC0008F4F9F4F0895E89409C097FB3EF490956C
:102DD0008095709561957F4F8F4F9F4F9923A9F0F4
:102DE000F92F96E9BB279395F69587957795679583
:102DF000B795F111F8CFFAF4BB0F11F460FF1BC0C7
:102E00006F5F7F4F8F4F9F4F16C0882311F096E959
:102E100011C0772321F09EE8872F762F05C0662307
:102E200071F096E8862F70E060E02AF09A95660FC0
:102E3000771F881FDAF7880F9695879597F9089579
:102E4000990F0008550FAA0BE0E8FEEF16161706BB
:102E5000E807F907C0F012161306E407F50798F023
:102E6000621B730B840B950B39F40A2661F0232B3C
:102E7000242B252B21F408950A2609F4A140A695B8
:102E80008FEF811D811D089597F99F6780E870E09D
:102E900060E008959FEF80EC089500240A941616D0
:102EA000170618060906089500240A941216130638
:102EB000140605060895092E0394000C11F48823C6
:102EC00052F0BB0F40F4BF2B11F460FF04C06F5FE2
:102ED0007F4F8F4F9F4F089557FD9058440F551FB8
:102EE00059F05F3F71F04795880F97FB991F61F08C
:102EF0009F3F79F087950895121613061406551F03
:102F0000F2CF4695F1DF08C0161617061806991F6E
:102F1000F1CF86957105610508940895E894BB2763
:102F200066277727CB0197F908950E94201708F4A8
:102F30008FEF08950E94AD170C945B170E944D17F8
:102F400038F00E94541720F0952311F00C94441788
:102F50000C944A1711240C948F170E946C1770F36D
:102F6000959FC1F3950F50E0551F629FF001729F2E
:102F7000BB27F00DB11D639FAA27F00DB11DAA1F3D
:102F8000649F6627B00DA11D661F829F2227B00D8A
:102F9000A11D621F739FB00DA11D621F839FA00D15
:102FA000611D221F749F3327A00D611D231F849F65
:102FB000600D211D822F762F6A2F11249F575040BC
:102FC0009AF0F1F088234AF0EE0FFF1FBB1F661F37
:102FD000771F881F91505040A9F79E3F510580F000
:102FE0000C9444170C948F175F3FE4F3983ED4F38E
:102FF000869577956795B795F795E7959F5FC1F7A4
:10300000FE2B880F911D9695879597F9089597FB4C
:10301000072E16F4009407D077FD09D00E942118DE
:1030200007FC05D03EF4909581959F4F08957095CB
:1030300061957F4F0895EE0FFF1F0590F491E02DED
:103040000994AA1BBB1B51E107C0AA1FBB1FA617EF
:10305000B70710F0A61BB70B881F991F5A95A9F741
:1030600080959095BC01CD01089581E090E0F894A1
:103070000C944518FB01DC010D900020E9F7119735
:1030800001900D920020E1F7089512E0C0E6D2E031
:1030900004C0FE010E941B182196C136D107C9F752
:0430A000F894FFCFD2
:1030A40001000100010006000000006208AA075D9B
:0A30B40008230824083B080B08005D
:00000001FF
